:100000000C9418040C9449040C9449040C9449046D
:100010000C9449040C9449040C9449040C9449042C
:100020000C9449040C9449040C9449040C9449041C
:100030000C9449040C9449040C9449040C9449040C
:100040000C9449040C9449040C9449040C944904FC
:100050000C9449040C9449040C9449040C94410FE9
:100060000C9449040C9429130C94F5130C94490432
:100070000C9449040C9449040C9449040C944904CC
:100080000C9449040C9449040C9449040C944904BC
:100090000C945C130C9434140C9449040C9449048F
:1000A0000C9449040C9449040C9449040C9449049C
:1000B0000C9449040C9449040C9449040C9449048C
:1000C0000C9449040C9449040C9449040C948F1327
:1000D0000C9473140C9449040C94C2130C94B21431
:1000E0000C9449048010831076107A10BA1087108F
:1000F0008B109110951099109F10A310A710BA1093
:10010000AD10B110B5100C94B4290C94C2120C941B
:100110002A2E0C9487100C94A7100C94452D0C9447
:1001200021180C9420320C9480100C94992A0C9471
:1001300079150C9491100C94232A0C9439190C9471
:1001400038180C949F200C949F100C9499100C94C8
:100150008B100C94FA280C94F82A0C942B290C94EC
:1001600083100C946C320C94922E0C945C2E0C9494
:1001700070290C94CD120C94492E0C94FB280C94ED
:10018000352E0C94B1100C94CC2E0C9475120C944A
:10019000052A0C94B5100C94AD100C944E180C94C8
:1001A0000C090C9486120C940E290C941A290C94A8
:1001B00099330C9489180C946A180C9476100C944A
:1001C00093180C9402290C94F92A0C94A3100C9403
:1001D00014340C94442F0C94BA100C94062F0C94E5
:1001E0002A290C9451280C9476120C9450110C94DA
:1001F00095100C947A100C94A2120000090A0208BF
:100200000B0C0D07060304010000000000000000B5
:1002100000000000000000000000000000000000DE
:1002200000000000000011100F000000000000009E
:1002300000000000000000000000000000000000BE
:1002400001021020200808102040102040800201E8
:1002500002010804020101020408102040808040CD
:1002600020100804020180040201804020100804CC
:10027000020108040201010204081020408001026A
:100280000408102040800505050507050808080832
:10029000020202020A0A080804040404010101011E
:1002A0000101010103030303030303030407070719
:1002B0000C0C0C0C0C0C0C0C0202020206060606BE
:1002C000060606060B0B0B0B0B0B0B0B000020009E
:1002D0002300260029002C002F003200000100001E
:1002E00003010601090100002200250028002B005F
:1002F0002E003100340002010000050108010B014D
:1003000000002100240027002A002D0030003300C7
:1003100001010000040107010A017C3C3E5E2B3D07
:100320003F2F5B5D3B2C2A225C0000000000003E5A
:100330005B4F5B3E3E6B4F6B3E1C3E7C3E1C183C55
:100340007E3C181C577D571C1C5E7F5E1C00183CB1
:100350001800FFE7C3E7FF0018241800FFE7DBE7FA
:10036000FF30483A060E2629792926407F050507E1
:10037000407F05253F5A3CE73C5A7F3E1C1C08083D
:100380001C1C3E7F14227F22145F5F005F5F060902
:100390007F017F006689956A606060606094A2FF5B
:1003A000A29408047E040810207E201008082A1C4D
:1003B00008081C2A08081E101010100C1E0C1E0C19
:1003C00030383E3830060E3E0E06000000000000B9
:1003D000005F00000007000700147F147F14242A28
:1003E0007F2A1223130864623649562050000807FA
:1003F0000300001C2241000041221C002A1C7F1C1B
:100400002A08083E0808008070300008080808081C
:10041000000060600020100804023E5149453E0083
:10042000427F400072494949462141494D331814E1
:10043000127F1027454545393C4A49493141211130
:1004400009073649494936464949291E0000140022
:100450000000403400000008142241141414141445
:10046000004122140802015909063E415D594E7CA3
:100470001211127C7F494949363E414141227F4158
:1004800041413E7F494949417F090909013E4141B6
:1004900051737F0808087F00417F41002040413FA1
:1004A000017F081422417F404040407F021C027FB0
:1004B0007F0408107F3E4141413E7F090909063E05
:1004C0004151215E7F0919294626494949320301D4
:1004D0007F01033F4040403F1F2040201F3F4038E6
:1004E000403F631408146303047804036159494DC1
:1004F00043007F4141410204081020004141417FF7
:10050000040201020440404040400003070800206C
:10051000545478407F28444438384444442838446C
:1005200044287F385454541800087E090218A4A4A3
:100530009C787F0804047800447D40002040403DC2
:10054000007F1028440000417F40007C047804783C
:100550007C080404783844444438FC1824241818CF
:10056000242418FC7C08040408485454542404042B
:100570003F44243C4040207C1C2040201C3C403018
:10058000403C44281028444C9090907C4464544C47
:1005900044000836410000007700000041360800A2
:1005A00002010204023C2623263C1EA1A161123A4C
:1005B0004040207A38545455592155557941225498
:1005C000547842215554784020545579400C1E529D
:1005D0007212395555555939545454593955545442
:1005E000580000457C410002457D420001457C40A9
:1005F0007D1211127DF0282528F07C5455450020ED
:1006000054547C547C0A097F4932494949323A445E
:1006100044443A324A4848303A4141217A3A4240C9
:100620002078009DA0A07D3D4242423D3D4040409B
:100630003D3C24FF2424487E4943662B2FFC2F2B6E
:10064000FF0929F620C0887E09032054547941000F
:1006500000447D413048484A32384040227A007A8E
:100660000A0A727D0D19317D2629292F282629296C
:10067000292630484D40203808080808080808088E
:10068000382F10C8ACBA2F102834FA00007B0000B5
:1006900008142A142222142A14085500550055AAB9
:1006A00055AA55AAFF55FF55FF000000FF00101086
:1006B00010FF00141414FF001010FF00FF1010F0C2
:1006C00010F0141414FC001414F700FF0000FF00D5
:1006D000FF1414F404FC141417101F10101F101F23
:1006E0001414141F00101010F0000000001F101050
:1006F00010101F10101010F010000000FF1010104C
:10070000101010101010FF10000000FF140000FF68
:1007100000FF00001F10170000FC04F41414171051
:10072000171414F404F40000FF00F7141414141444
:100730001414F700F7141414171410101F101F14BA
:100740001414F4141010F010F000001F101F00001B
:10075000001F14000000FC140000F010F01010FF47
:1007600010FF141414FF141010101F00000000F0EC
:1007700010FFFFFFFFFFF0F0F0F0F0FFFFFF0000C1
:10078000000000FFFF0F0F0F0F0F3844443844FCE8
:100790004A4A4A347E02020606027E027E026355FF
:1007A0004941633844443C04407E201E2006027EBA
:1007B000020299A5E7A5991C2A492A1C4C720172CC
:1007C0004C304A4D4D303048784830BC625A463D36
:1007D0003E494949007E0101017E2A2A2A2A2A44EB
:1007E000445F444440514A444040444A5140000020
:1007F000FF0103E080FF000008086B6B083612362B
:100800002436060F090F060000181800000010100B
:10081000003040FF0101001F01011E00191D1712C9
:10082000003C3C3C3C00000000000C0979152118FC
:1008300011241FBECFEFD1E2DEBFCDBF00E00CBF61
:1008400013E0A0E0B2E0EEE3F6E700E00BBF02C089
:1008500007900D92A43EB107D9F72CE1A4EEB3E0C6
:1008600001C01D92A033B207E1F714E0C8E1D4E063
:1008700000E006C021970109802FFE010E94D83AAE
:10088000C531D10780E00807A9F70E94380F0C9402
:10089000B8370C9400002F923F924F925F926F9264
:1008A0007F928F929F92AF92BF92CF92DF92EF9200
:1008B000FF920F931F93CF93DF93CDB7DEB7CA5448
:1008C000D1090FB6F894DEBF0FBECDBF9CAF8BAF82
:1008D0004B0158AF4FAB39011EAF0DAF2196FFAEA4
:1008E000EEAE21972396BFAEAEAE23970DB71EB7DF
:1008F00025961FAF0EAF25978E01045E1F4FC801CE
:100900000E94F218ABADBCAD4D915C9121E06AED57
:1009100079E1CE0101960E949F178B819C819F8F68
:100920008E8F8D819E81AF81B88588A399A3AAA35C
:10093000BBA389859A85AB85BC858CA39DA3AEA3FB
:10094000BFA38DE0FE013D96DE01989601900D92C9
:100950008A95E1F78A8D9B8D9EAB8DABC8010E9475
:100960007A19F82ECE0101960E940519FF20C1F0D8
:10097000F601EE0FFF1FFAAFE9AF1301412C512C26
:10098000E12CF12CAFA9B8ADCD01A0E0B0E02996E3
:100990008CAF9DAFAEAFBFAF2997702E612E29C02F
:1009A0006BE272E088E997E10E948D11EBADFCAD3E
:1009B0006081718188E997E10E948D1167E288E981
:1009C00097E10E94BC11A6C0D401ED91FC91028870
:1009D000F389E02DC40119950FB6F894BEBE0FBE81
:1009E000ADBEBFEFEB1AFB0AEFEF2E1A3E0A4E0A1E
:1009F0005E0A23960EAD1FAD2397E016F10609F4AB
:100A000082C0ADB6BEB60DB71EB729AD3AAD021B5A
:100A1000130B0FB6F8941EBF0FBE0DBF8DB79EB758
:100A2000019698AF8FABEBADFCADA281B381A20173
:100A300091010E94FE3A29960CAD1DAD2EAD3FAD41
:100A40002997060F171F281F391FB901A801440F46
:100A5000551F661F771F872D962D0E94101949ADCF
:100A60005AAD6FA978AD872D962D0E94061929AD34
:100A70003AAD8217930781F06CE372E088E997E161
:100A80000E94AA11872D962D0E9468190FB6F8941E
:100A9000BEBE0FBEADBE3EC0D401ED91FC9106803E
:100AA000F781E02DC401199501E010E0960121962F
:100AB0004EAD5FAD21974E0D5F1D6DAD7EADC40196
:100AC0000E9492320FA918AD20E030E02C153D05B0
:100AD00009F47ACFF801619171918F017627672728
:100AE0007627C4012A962FAF2A972B963FAF2B97D4
:100AF0000E9443332A962FAD2A972B963FAD2B9712
:100B00002F5F3F4FE3CFCE014C960E946819CE0174
:100B10004C9602C0CE014C960E94051925962EAD2A
:100B20003FAD25970FB6F8943EBF0FBE2DBFC65BF5
:100B3000DF4F0FB6F894DEBF0FBECDBFDF91CF9170
:100B40001F910F91FF90EF90DF90CF90BF90AF90EB
:100B50009F908F907F906F905F904F903F902F90DD
:100B60000895AF92BF92CF92DF92EF92FF920F93D0
:100B70001F931F921F9228E02F931F92A12CB12C3C
:100B8000650118E8E12E10E1F12E03E51FEF24E3E3
:100B900037E842E55FEF0E944B160F900F900F90E1
:100BA0000F90CB011F910F91FF90EF90DF90CF90AE
:100BB000BF90AF900895AF92BF92CF92DF92EF9225
:100BC000FF920F931F931F921F9228E02F931F9263
:100BD000A12CB12C650119E1E12E1FE7F12E01E5F1
:100BE00010E022EC30ED41E550E00E944B160F90F2
:100BF0000F900F900F90CB011F910F91FF90EF90EE
:100C0000DF90CF90BF90AF900895CF92DF92EF9298
:100C1000FF920F931F93CF93DF939B016C0197FF7C
:100C200003C047E0C40ED11C43E0D594C7944A9555
:100C3000E1F70D2C000CEE08FF0849E0D40E4DE35F
:100C4000E41EF11C4091CE165091CF166091D01643
:100C50007091D1164C155D056E057F0579F468E03D
:100C600070E00E94833AFC0196E0EE0FFF1F9A9518
:100C7000E1F7E453FB4E80E4D9012AC08901EC017D
:100C8000C092CE16D092CF16E092D016F092D11626
:100C90002CEC34E1B701A60186ED96E10E94162303
:100CA000811107C060E572E088E997E10E94AA110E
:100CB000EFCFCE0168E070E00E94833AFC0186E04D
:100CC000EE0FFF1F8A95E1F7E453FB4E80E4D80155
:100CD00001900D928A95E1F7DF91CF911F910F91CD
:100CE000FF90EF90DF90CF900895AF92BF92CF9298
:100CF000DF92EF92FF920F931F93E0900802F09023
:100D0000090284E0E81AF10800910A0210910B022E
:100D10000450110920910402309105022E0D3F1D4F
:100D20004091060250910702400F511F89E0A82E02
:100D3000B12C99E0C92ED12C62EE76E18CE092E0E4
:100D40000E944B041F910F91FF90EF90DF90CF9086
:100D5000BF90AF900895AF92BF92CF92DF92EF9283
:100D6000FF920F931F93209104023091050240914E
:100D700006025091070280EFA82EB12C90E1C92EF7
:100D8000DD24D394E12CF12C00E010E062EE76E15A
:100D90008CE092E00E944B0420910A0230910B02F9
:100DA000A901405A51098091080290910902413CE1
:100DB0005640E8F1AC01485751094131574000F124
:100DC0008430910534F08D3E91052CF08CEE90E04E
:100DD00002C084E090E090930902809308022430DE
:100DE00031053CF02C3081E038072CF02BE031E06D
:100DF00002C024E030E030930B0220930A0235C099
:100E0000243031053CF02C3041E034072CF02BE04D
:100E100031E002C024E030E030930B0220930A025C
:100E200088E790E090930902809308021EC09C011D
:100E3000285731092131374060F08430910534F072
:100E40008D3E910544F08CEE90E005C084E090E08A
:100E500002C088E790E0909309028093080288E836
:100E600090E090930B0280930A021F910F91FF90E4
:100E7000EF90DF90CF90BF90AF90089580910602E1
:100E800090910702813926E0920714F080E996E0FC
:100E900097FF02C080E090E09093070280930602E3
:100EA0008091040290910502813127E0920714F0AD
:100EB00080E197E097FF02C080E090E09093050208
:100EC0008093040208950F931F93660F771F660F98
:100ED000771FDC01A60FB71F0D911D912D913C913D
:100EE000139764507109FC01E60FF71F408151818F
:100EF000628173814D935D936D937C93139700830F
:100F00001183228333831F910F910895AF92BF9273
:100F1000CF92DF92EF92FF920F931F93CF93DF93C5
:100F20005C016C0182E0C80ED11CC1E0D0E0809170
:100F3000D2169091D316C817D907ECF486017E011A
:100F40001E141F049CF4F801208131810450110902
:100F5000F801808591858217930740F4B701C50198
:100F60000E946307E1E0EE1AF108EACF2196F4E06F
:100F7000CF0ED11CDCCFDF91CF911F910F91FF904D
:100F8000EF90DF90CF90BF90AF900895CF92DF9217
:100F9000EF92FF920F931F93CF93DF93C0E0D0E0C7
:100FA0006CE874E1CE010E9405066091941470E033
:100FB0006F5F7F4F75956795072E000C880B990B17
:100FC0000E94F9380E9434396B017C0120E030E046
:100FD00040E85FE30E94013A18162CF4C701B601FD
:100FE0000E94C83801C061E06093941470E0809161
:100FF000020290910302681779070CF45BC0E0913C
:10100000D216F091D316EE0FFF1FEE0FFF1FEC511B
:10101000FC4FD183C08360918C1470918D148091AA
:101020008E1490918F140E94DB058C0160919014B6
:101030007091911480919214909193140E94B10533
:10104000E091D216F091D316DF01AA0FBB1FAA0FB1
:10105000BB1FAC51BC4F60910602709107022091FA
:101060000A0230910B02260F371FB901681B790B5A
:1010700077FF03C071956195710920910402309149
:1010800005024091080250910902420F531F9A0134
:10109000201B310B37FF03C0319521953109260FF5
:1010A000371F13963C932E9312973196F093D316D5
:1010B000E093D2162196CA3284E0D80709F070CFA7
:1010C000DF91CF911F910F91FF90EF90DF90CF9024
:1010D0000895CF92DF92EF92FF92CF93DF9340E09B
:1010E00050E060E070E082EE96E10E941B2E60E02E
:1010F00082EE96E10E94272E8091D4169091D5160B
:101100008D7F892B91F51092D3161092D2160E94E2
:10111000C6070E948B0F6B017C010E948B0FEB01B5
:10112000CC19DD0961E772E088E997E10E948D1131
:101130006091D2167091D3164AE050E088E997E1A9
:101140000E946E1268E772E088E997E10E948D11B3
:101150004AE050E0BE0188E997E10E946E1267E81C
:1011600072E088E997E10E94AA118091D4169091CB
:10117000D51601970297E0F51092D3161092D21669
:101180000E94C6070E948B0F6B017C0184EE93E0E6
:101190000E9486070E948B0FEB01CC19DD096BE8DA
:1011A00072E088E997E10E948D116091D2167091EA
:1011B000D3164AE050E088E997E10E946E1268E792
:1011C00072E088E997E10E948D114AE050E0BE018B
:1011D00088E997E10E946E1267E872E088E997E17A
:1011E000DF91CF91FF90EF90DF90CF900C94AA11F8
:1011F000DF91CF91FF90EF90DF90CF90089588E836
:1012000090E090930B0280930A0288E790E090931D
:101210000902809308020895EF92FF920F938CE2E7
:10122000E82EFF24F39405E029E348E364E085E138
:1012300097E10E94DD352FEF49E06AE082EE96E10A
:101240000E94692FE6EDF6E115821682118613865B
:101250000F91FF90EF900895CF92DF92EF92FF925F
:101260000F931F93CF93DF93EC017B0160E070E05D
:1012700082EE96E10E94052A40E050E060E070E0D6
:1012800082EE96E10E941B2E6E01CC0CDD1CCC0C74
:10129000DD1C00E010E0CE15DF0578F5F801EC0D5F
:1012A000FD1DEC51FC4F6CE874E1808191810E943E
:1012B00005068091CC169091CD16C817D90729F054
:1012C00040E050E06FEF7FEF04C04FEF5FEF60E072
:1012D00070E082EE96E10E94212E65E974E182EED3
:1012E00096E10E948D1162E972E082EE96E10E9421
:1012F0008D1121960C5F1F4FCECF62E972E082EE16
:1013000096E1DF91CF911F910F91FF90EF90DF90C9
:10131000CF900C948D118F929F92AF92BF92CF92EB
:10132000EF92FF920F931F93CF93DF93CDB7DEB76A
:101330002E970FB6F894DEBF0FBECDBF5C018EE0D6
:10134000EDE1F2E0DE01119601900D928A95E1F750
:1013500020E040E06FEF82EE96E10E945D2F7C017D
:1013600007E710E020E330E040E050E060E171E0AA
:1013700082EE96E10E94992A20E04FEF60E082EE33
:1013800096E10E945D2F7C0120E330E049E750E0C8
:1013900060E171E082EE96E10E94992AC5018D7F9D
:1013A000892B29F52FEF4FEF6FEF82EE96E10E9428
:1013B0005D2F7C0103E710E02CE230E042E050E0DA
:1013C00062E171E082EE96E10E94062F2091020216
:1013D000205DF2E0CF2EE12CF12C00E010E044E3A0
:1013E00050E063E271E082EE96E10E942F2B81E0F3
:1013F000A81AB10892E0A916B10408F079C02FEF3D
:101400004FEF6FEF82EE96E10E945D2F7C0103E7C4
:1014100010E02CE230E04BE750E062E171E082EE58
:1014200096E10E94062F8091D4169091D5160097D0
:10143000F9F4FE0131965F01E7E88E2E912CF5015B
:1014400021915F0162E0C62EEE24EA94FE2C00E0BA
:1014500010E0A40163E271E082EE96E10E942F2B7E
:10146000F4E18F0E911C8BEE8816910441F740C079
:101470004E010197F9F496E0890E911C57E8A52ECC
:10148000B12CF40121914F0132E0C32EEE24EA94F5
:10149000FE2C00E010E0A50163E271E082EE96E12F
:1014A0000E942F2BF4E1AF0EB11C8BEEA816B104F5
:1014B00041F71EC09BE0890E911C2CE8A22EB12C96
:1014C000F40121914F0182E0C82EEE24EA94FE2C13
:1014D00000E010E0A50163E271E082EE96E10E9477
:1014E0002F2BF4E1AF0EB11C8CEDA816B10441F71F
:1014F0002E960FB6F894DEBF0FBECDBFDF91CF9111
:101500001F910F91FF90EF90CF90BF90AF909F9061
:101510008F900895EF92FF920F931F9340910802CE
:10152000509109024450510960910A0270910B02D6
:10153000645071097C0109E010E029E030E082EE9E
:1015400096E10E94062F1F910F91FF90EF90089552
:101550000E94E20F40E855E260E070E088E997E120
:101560000E94F11462E082E00E94BB1040E050E073
:10157000BA0182EE96E10E942A3064E972E088E9BD
:1015800097E10E94AA1166E08AED99E10E948C160B
:10159000811107C06CEA72E088E997E10E94AA1104
:1015A000FFCF6DEC72E088E997E10E94AA1161ED2E
:1015B00072E088E997E10E94AA1146E061E086EDB9
:1015C00096E10E948421811107C061E073E088E9FF
:1015D00097E10E94AA11FFCF6DEC72E088E997E1D4
:1015E0000E94AA1168E273E088E997E10E94AA11BB
:1015F00063E082EE96E10E94203260E070E082EECD
:1016000096E10E94052A0E94AB0680E098EF0C94B8
:101610008A0A4F925F926F927F92AF92BF92CF925F
:10162000DF92EF92FF920F931F93CF93DF9324EEFD
:10163000A22E23E0B22EC0E0D0E0F501D183C0831A
:101640006CE874E1CE010E94050660918C147091E3
:101650008D1480918E1490918F140E94DB056C0183
:1016600060919014709191148091921490919314C0
:101670000E94B1057C016091941470E06F5F7F4F10
:1016800075956795072E000C880B990B0E94F93809
:101690000E9434392B013C0120E030E040E85FE358
:1016A0000E94013A18162CF4C301B2010E94C838F6
:1016B00001C061E06093941480910602909107024A
:1016C0002091000230910102AC01420F531F4E15D0
:1016D0005F058CF5AC01405F5E4F421B530BE41677
:1016E000F5064CF54091040250910502FA01E20F13
:1016F000F31FEC15FD05FCF4FA01E051FF4FE21B6E
:10170000F30BCE16DF06BCF470E0E0910202F0911C
:1017100003026E177F077CF0B601641B750BAB01EB
:10172000B701681B790B8FE1E82EF12C890182EE5D
:1017300096E10E94062F219674E0A70EB11CCA32D2
:1017400084E0D80709F079CFDF91CF911F910F91F5
:10175000FF90EF90DF90CF90BF90AF907F906F9011
:101760005F904F9008954F925F926F927F92AF92E9
:10177000BF92CF92DF92EF92FF920F931F93CF937E
:10178000DF9300D000D0CDB7DEB785E197E10E94AE
:10179000833429833A834B835C836D837E838D817D
:1017A0009E810A978F3D934008F09EC06B817C819B
:1017B000072E000C880B990B1F921F921F921F92ED
:1017C00020E4A22EBB24B394C12CD12C1CEAE12E20
:1017D00013E0F12E00E010E028E730E040E050E0B8
:1017E0000E944B162B013C0169817A81072E000C67
:1017F000880B990B1F921F921F9220EF2F93A12C01
:10180000B12C650118E9E12E13E0F12E00E010E0A3
:1018100026E930E040E050E00E944B160FB6F89405
:10182000DEBF0FBECDBF30E1431631E05306B4F446
:1018300026960FB6F894DEBF0FBECDBFDF91CF91D5
:101840001F910F91FF90EF90DF90CF90BF90AF90DE
:101850007F906F905F904F900C94090B67377105E4
:101860008CF48091020290910302019686309105DA
:1018700014F081E090E0909303028093020280E0F4
:1018800090E016C06A377105ACF08091D416909143
:10189000D5160196833091052CF49093D51680933C
:1018A000D41604C01092D5161092D41681E090E0A0
:1018B0000E948B096CE271E080E090E026960FB602
:1018C000F894DEBF0FBECDBFDF91CF911F910F9176
:1018D000FF90EF90DF90CF90BF90AF907F906F9090
:1018E0005F904F900C94BC0F26960FB6F894DEBF15
:1018F0000FBECDBFDF91CF911F910F91FF90EF9061
:10190000DF90CF90BF90AF907F906F905F904F909F
:101910000895AF92BF92CF92DF92EF92FF920F9312
:101920001F93CF93DF93CDB7DEB7C054D1090FB665
:10193000F894DEBF0FBECDBF6C01FB01EE0FFF1FA1
:10194000EE0FFF1FEC51FC4FBE016F5F7F4F808198
:1019500091810E940506560193E0AA0CBB1C9A9542
:10196000E1F7A50160E070E082EE96E10E941B2E97
:1019700020E040E060E082EE96E10E945D2F7C0175
:1019800008E010E020E431E0A50160E070E082EEC4
:1019900096E10E94062F8091CC169091CD16C81624
:1019A000D90629F44FEF5FEF60E070E004C040E03B
:1019B00050E06FEF7FEF82EE96E10E94212EBE0194
:1019C000665F7F4F82EE96E10E94AA11C05CDF4FF6
:1019D0000FB6F894DEBF0FBECDBFDF91CF911F9140
:1019E0000F91FF90EF90DF90CF90BF90AF90089550
:1019F0006F927F928F929F92AF92BF92CF92DF921F
:101A0000EF92FF920F931F93CF93DF93CDB7DEB783
:101A1000C054D1090FB6F894DEBF0FBECDBF60E051
:101A200070E082EE96E10E94052A64E670E080E0B4
:101A300090E00E94BC0F0E9469081092CD1610928F
:101A4000CC166EE170E080E090E00E942C09A12CA1
:101A5000B12CC12CD12C9DE1692E712C86E30E9402
:101A6000441087E30E9444107C0182E00E94271109
:101A70004C0162E370E080E090E00E94BC0F0091B6
:101A8000CC161091CD16C701805C9140813891052C
:101A900008F48EC080ECE81681E0F8065CF5C80119
:101AA00001979093CD168093CC1697FF11C08EE1CD
:101AB000C816D1046CF076018EE1E81AF108B6017F
:101AC000C7010E942C097092CD166092CC16670156
:101AD0002091CC163091CD162E31310514F02DE128
:101AE00030E037FF02C020E030E03093CD16209385
:101AF000CC1634C02091D2163091D3160D31110579
:101B0000B1F476018EE1E80EF11C56018CE3A80ECB
:101B1000B11C2A153B050CF459011092CD161092F8
:101B2000CC16B501C7010E942C09670117C0C80176
:101B300001969093CD168093CC168C0D9D1D821727
:101B4000930764F01092CD161092CC166EE170E0FF
:101B500080E090E00E942C09C12CD12CB601600FCE
:101B6000711FC8010E94890C8091CC169091CD16EE
:101B7000BC016C0D7D1D0E94890C8091D216909144
:101B8000D316A816B906A4F020E040E060E082EE8B
:101B900096E10E945D2F7C0104E110E020E431E039
:101BA0004CE251E060E070E082EE96E10E94062F88
:101BB000892809F053CFE091CC16F091CD16EE0FA5
:101BC000FF1FEE0FFF1FEC51FC4FBE016F5F7F4FF9
:101BD000808191810E94050669817A818B819C8137
:101BE0000E94DB05049690930902809308026D81A0
:101BF0007E818F8198850E94B1059C012C5F3F4FAB
:101C000030930B0220930A028458910990930702A3
:101C100080930602809108029091090288579109E9
:101C2000909305028093040282E090E00E948B0969
:101C30000E943E070E94AB060E94750680E098EF66
:101C40000E948A0AC05CDF4F0FB6F894DEBF0FBE59
:101C5000CDBFDF91CF911F910F91FF90EF90DF905B
:101C6000CF90BF90AF909F908F907F906F9008958E
:101C7000CF92DF92EF92FF920F931F93CF93DF9358
:101C800086E30E9444107C0187E30E9444106C01AB
:101C900082E00E942711EC010E94B30BCD2B11F4BE
:101CA0000E94F80CC601805C91408138910538F49F
:101CB000C701805C91408138910508F4CBC080E079
:101CC00092E08E199F091816190614F0C701925058
:101CD00064E670E00E94833AEB01219680E092E096
:101CE0008C199D091816190614F0C601925064E665
:101CF00070E00E94833A8B010F5F1F4F0E947506B0
:101D0000609108027091090220ECC21621E0D2060F
:101D10002CF4CB01801B910B8C0107C091E4C916F8
:101D200092E0D90634F0060F171F109309020093B2
:101D3000080260910A0270910B0221E4E21622E08F
:101D4000F2062CF0CB018C1B9D0BEC0107C090EC34
:101D5000E91691E0F90634F4C60FD71FD0930B02B1
:101D6000C0930A0280910A0290910B02843091057F
:101D70003CF08C3021E092072CF08BE091E002C027
:101D800084E090E090930B0280930A028091080215
:101D9000909109028430910534F08D3E91052CF02C
:101DA0008CEE90E002C084E090E090930902809372
:101DB000080280E098EF0E948A0A80910A029091BE
:101DC0000B02853091054CF4809106029091070238
:101DD0000097A9F0805191400DC08B3091407CF06C
:101DE0008091060290910702803926E0920739F02F
:101DF000805F9E4F909307028093060221C08091DE
:101E0000080290910902853091054CF480910402FA
:101E1000909105020097F1F0805F91090DC08C3E12
:101E20009105C4F08091040290910502803127E071
:101E3000920781F080519F4F909305028093040296
:101E40000E943E070E94FF080E94AB0680E098EFC8
:101E50000E948A0A64E170E080E090E0DF91CF9117
:101E60001F910F91FF90EF90DF90CF900C94BC0FDB
:101E70000E94A80A82E090E00E948B090E94380E1E
:101E8000FDCF1F920F920FB60F9211242F933F9305
:101E90008F939F93AF93BF9380912A1790912B17A5
:101EA000A0912C17B0912D173091291723E0230F03
:101EB0002D3720F40196A11DB11D05C026E8230F82
:101EC0000296A11DB11D2093291780932A17909384
:101ED0002B17A0932C17B0932D1780912E1790914C
:101EE0002F17A0913017B09131170196A11DB11D88
:101EF00080932E1790932F17A0933017B09331171C
:101F0000BF91AF919F918F913F912F910F900FBEF5
:101F10000F901F9018952FB7F89460912A17709121
:101F20002B1780912C1790912D172FBF08953FB735
:101F3000F89480912E1790912F17A0913017B0919F
:101F4000311726B5A89B05C02F3F19F00196A11D9A
:101F5000B11D3FBFBA2FA92F982F8827820F911D3F
:101F6000A11DB11DBC01CD0142E0660F771F881F86
:101F7000991F4A95D1F70895CF92DF92EF92FF9281
:101F8000CF93DF936B017C010E94970FEB01C1148B
:101F9000D104E104F10479F00E94970F6C1B7D0BD2
:101FA000683E7340A0F381E0C81AD108E108F10847
:101FB000C851DC4FECCFDF91CF91FF90EF90DF90D5
:101FC000CF900895789484B5826084BD84B5816093
:101FD00084BD85B5826085BD85B5816085BDEEE631
:101FE000F0E0808181608083E1E8F0E01082808110
:101FF00082608083808181608083E0E8F0E080817E
:1020000081608083E1EBF0E0808184608083E0EB9D
:10201000F0E0808181608083E1E9F0E0808182608E
:102020008083808181608083E0E9F0E0808181604D
:102030008083E1EAF0E0808182608083808181603A
:102040008083E0EAF0E0808181608083E1E2F1E07A
:10205000808182608083808181608083E0E2F1E022
:10206000808181608083EAE7F0E080818460808302
:1020700080818260808380818160808380818068AC
:1020800080831092C1000895863308F086539091A2
:102090007B00282F2870977F922B90937B0087706E
:1020A0002091120290E4299F90011124822B8093A9
:1020B0007C0080917A00806480937A0080917A001D
:1020C00086FDFCCF809178002091790090E0922BE2
:1020D000089590E0FC013197E131F10508F04AC024
:1020E0008827EE58FF4F8F4F0C94D83A809180008C
:1020F0008F7703C0809180008F7D8093800008954A
:1021000084B58F7702C084B58F7D84BD089580919A
:10211000B0008F7703C08091B0008F7D8093B000B6
:102120000895809190008F7707C0809190008F7DF7
:1021300003C080919000877F8093900008958091E4
:10214000A0008F7707C08091A0008F7D03C0809191
:10215000A000877F8093A0000895809120018F7751
:1021600007C0809120018F7D03C080912001877F6F
:10217000809320010895CF93DF9390E0FC01E05C11
:10218000FD4F2491FC01EA57FD4F8491882361F1B2
:1021900090E0880F991FFC01E050FD4FC591D4914C
:1021A000FC01EA51FD4FA591B491611109C09FB79F
:1021B000F8948881209582238883EC912E230BC08C
:1021C000623061F49FB7F8943881822F8095832321
:1021D0008883EC912E2B2C939FBF06C08FB7F89469
:1021E000E8812E2B28838FBFDF91CF9108951F9315
:1021F000CF93DF93282F30E0F901E650FE4F849112
:10220000F901E05CFD4FD491F901EA57FD4FC4910B
:10221000CC23C9F0162F81110E946910EC2FF0E039
:10222000EE0FFF1FEA51FD4FA591B4918FB7F894BF
:10223000111105C09C91ED2FE095E92302C0EC91AE
:10224000ED2BEC938FBFDF91CF911F910895CF932A
:10225000DF93282F30E0F901E650FE4F8491F90119
:10226000E05CFD4FD491F901EA57FD4FC491CC23B6
:1022700091F081110E946910EC2FF0E0EE0FFF1F2A
:10228000E453FD4FA591B491EC91ED2381E090E0F2
:1022900021F480E002C080E090E0DF91CF910895CA
:1022A000CF92DF92EF92FF920F931F93CF93DF9322
:1022B0006C01EB017B01E40EF51E00E010E0CE1591
:1022C000DF0561F06991D601ED91FC910190F081FB
:1022D000E02DC6011995080F191FF1CFC801DF9134
:1022E000CF911F910F91FF90EF90DF90CF900895C5
:1022F0006115710579F0FB0101900020E9F7319734
:10230000AF01461B570BDC01ED91FC910280F3817C
:10231000E02D199480E090E008950C947811DC0190
:10232000ED91FC910190F081E02D19940F931F9392
:10233000CF93DF93EC016DE00E948F118C016AE076
:10234000CE010E948F11800F911FDF91CF911F91BD
:102350000F9108950F931F93CF93DF93EC010E9489
:1023600078118C01CE010E949611800F911FDF9190
:10237000CF911F910F9108950F931F93CF93DF93E8
:10238000EC010E948F118C01CE010E949611800FEA
:10239000911FDF91CF911F910F9108958F929F927E
:1023A000AF92BF92CF92DF92EF92FF920F931F9363
:1023B000CF93DF93CDB7DEB7A1970FB6F894DEBF0A
:1023C0000FBECDBF6C01142FE52FCB01022F19A238
:1023D000223008F40AE07E0121E2E20EF11C802E98
:1023E000912CA12CB12C612F7E2FA50194010E946C
:1023F000973A029F1019112481E0E81AF1081A3067
:1024000014F4105D01C0195CF7011083122FE32F43
:10241000CA01232B242B252B31F7B701C6010E94BB
:102420007811A1960FB6F894DEBF0FBECDBFDF9135
:10243000CF911F910F91FF90EF90DF90CF90BF90C1
:10244000AF909F908F900895CF92DF92EF92FF927E
:102450000F931F93CF93DF93EC016A017B0121154A
:10246000310579F4E881F9810190F081E02D642F44
:10247000DF91CF911F910F91FF90EF90DF90CF9060
:1024800019942A303105E9F477FF1AC06DE20E94F1
:102490008F118C0144275527BA014C195D096E092B
:1024A0007F092AE0CE010E94CE11800F911FDF919B
:1024B000CF911F910F91FF90EF90DF90CF900895F3
:1024C0002AE0B701A601CE01DF91CF911F910F91B4
:1024D000FF90EF90DF90CF900C94CE119A01AB015A
:1024E000770F660B770B0C9424120895FC0124855A
:1024F0003585F901E05CFF4F808191813296208122
:102500003181821B930B8F7399270895DC011C96F0
:10251000ED91FC911D97DF01A05CBF4F2D913C9187
:10252000119712968D919C9111972817390739F0C0
:102530008D919C91E80FF91F808190E008958FEFB5
:102540009FEF0895FC01A485B585FD01E05CFF4F78
:10255000208131813296808191812817390779F065
:1025600080819181A80FB91F8C91208131812F5FCB
:102570003F4F2F7333273183208390E008958FEFEF
:102580009FEF0895FC0181A1882329F0A489B589D2
:102590008C9186FFFBCF11A208950F931F93CF93C9
:1025A000DF93FC01A685B7858D01005C1F4FE80114
:1025B0008881998101968F739927AD014E5B5F4F9A
:1025C000EA012881398182179307D1F3E801288134
:1025D0003981A20FB31F6C93A685B785A05CBF4F4E
:1025E00011969C938E93A689B7892C9181E090E0F7
:1025F000078C02C0880F991F0A94E2F7822B8C93F4
:1026000081E081A30488F589E02D80818064808346
:1026100081E090E0DF91CF911F910F910895FB0130
:10262000E05CFF4F208131812F5F3F4F2F733327B5
:10263000DB01AE5BBF4F4D915C912417350741F034
:1026400040815181DB01A40FB51F8C93318320831E
:1026500008951F920F920FB60F9211240BB60F928E
:102660002F933F934F935F936F937F938F939F939A
:10267000AF93BF93EF93FF938091C00082FD07C09B
:102680008091C60066E979E10E940F1302C0809133
:10269000C600FF91EF91BF91AF919F918F917F9174
:1026A0006F915F914F913F912F910F900BBE0F90C3
:1026B0000FBE0F901F9018951F920F920FB60F929A
:1026C00011240BB60F922F933F934F935F936F9309
:1026D0007F938F939F93AF93BF93EF93FF938091DB
:1026E000C80082FD07C08091CE006EE079E10E94B3
:1026F0000F1302C08091CE00FF91EF91BF91AF9177
:102700009F918F917F916F915F914F913F912F9109
:102710000F900BBE0F900FBE0F901F9018951F9239
:102720000F920FB60F9211240BB60F922F933F9377
:102730004F935F936F937F938F939F93AF93BF93C9
:10274000EF93FF938091D00082FD07C08091D60067
:1027500066E878E10E940F1302C08091D600FF91D5
:10276000EF91BF91AF919F918F917F916F915F9109
:102770004F913F912F910F900BBE0F900FBE0F9076
:102780001F9018951F920F920FB60F9211240BB63F
:102790000F922F933F934F935F936F937F938F93FA
:1027A0009F93AF93BF93EF93FF938091300182FD8E
:1027B00007C0809136016EEF77E10E940F1302C0CF
:1027C00080913601FF91EF91BF91AF919F918F91D1
:1027D0007F916F915F914F913F912F910F900BBE21
:1027E0000F900FBE0F901F9018951F920F920FB66B
:1027F0000F9211240BB60F922F933F938F939F93B9
:10280000EF93FF932091921930919319809194192D
:10281000909195192817390731F48091C1008F7D67
:102820008093C10014C0E0919419F0919519EE5A6B
:10283000F64E2081809194199091951901968F738D
:10284000992790939519809394192093C600FF912E
:10285000EF919F918F913F912F910F900BBE0F9011
:102860000FBE0F901F9018951F920F920FB60F92E8
:1028700011240BB60F922F933F938F939F93EF9357
:10288000FF9320910A1930910B1980910C199091A6
:102890000D192817390731F48091C9008F7D809375
:1028A000C90014C0E0910C19F0910D19E653F74ED0
:1028B000208180910C1990910D1901968F739927A1
:1028C00090930D1980930C192093CE00FF91EF91F6
:1028D0009F918F913F912F910F900BBE0F900FBE44
:1028E0000F901F9018951F920F920FB60F92112400
:1028F0000BB60F922F933F938F939F93EF93FF937A
:1029000020918218309183188091841890918518B5
:102910002817390731F48091D1008F7D8093D10041
:1029200014C0E0918418F0918518EE5BF74E208179
:10293000809184189091851801968F7399279093B0
:102940008518809384182093D600FF91EF919F9172
:102950008F913F912F910F900BBE0F900FBE0F9054
:102960001F9018951F920F920FB60F9211240BB65D
:102970000F922F933F938F939F93EF93FF93209109
:10298000FA173091FB178091FC179091FD172817CB
:10299000390731F4809131018F7D8093310114C06A
:1029A000E091FC17F091FD17E654F84E20818091DC
:1029B000FC179091FD1701968F7399279093FD173F
:1029C0008093FC1720933601FF91EF919F918F9197
:1029D0003F912F910F900BBE0F900FBE0F901F9045
:1029E0001895CF92DF92EF92FF920F931F93CF93A0
:1029F000DF93EC016A017B014115514E61057105C0
:102A000009F1EC89FD8981E090E008A002C0880FFF
:102A1000991F0A94E2F7808360E079E08DE390E00B
:102A2000A70196010E94973A89019A010150110964
:102A300021093109369527951795079598010115B4
:102A40001041A8F0EC89FD89108260E874E88EE1FD
:102A500090E0A70196010E94973ADA01C901019717
:102A6000A109B109B695A795979587959C01E88925
:102A7000F9893083EA89FB89208319A2EE89FF89CD
:102A8000408181E090E09C010C8C02C0220F331F3A
:102A90000A94E2F7242B2083EE89FF8940819C0170
:102AA0000D8C02C0220F331F0A94E2F7242B2083DF
:102AB000EE89FF8940819C010E8C02C0220F331FDA
:102AC0000A94E2F7242B2083EE89FF8920810F8C62
:102AD00002C0880F991F0A94E2F7809582238083B1
:102AE000DF91CF911F910F91FF90EF90DF90CF90EA
:102AF0000895CF92DF92EF92FF92E8E9F7E1138217
:102B0000128288EEC82E83E0D82EE12CF12CC482EC
:102B1000D582E682F7826EE673E07183608386E990
:102B200099E19587848782E599E19787868785EC87
:102B300090E0918B808B84EC90E0938B828B80EC87
:102B400090E0958B848B81EC90E0978B868B82EC68
:102B500090E0918F808F86EC90E0938F828F44E09D
:102B6000448F33E0358F27E0268F95E0978F81E003
:102B700080A3E6E7F7E113821282C482D582E6825F
:102B8000F78271836083AEE0B9E1B587A487AAECD0
:102B9000B8E1B787A687ADECB0E0B18BA08BACEC09
:102BA000B0E0B38BA28BA8ECB0E0B58BA48BA9EC02
:102BB000B0E0B78BA68BAAECB0E0B18FA08FAEECE3
:102BC000B0E0B38FA28F448F358F268F978F80A36D
:102BD000E4E5F7E113821282C482D582E682F782AD
:102BE00071836083A6E8B8E1B587A487A2E4B8E161
:102BF000B787A687A5EDB0E0B18BA08BA4EDB0E0C0
:102C0000B38BA28BA0EDB0E0B58BA48BA1EDB0E0AF
:102C1000B78BA68BA2EDB0E0B18FA08FA6EDB0E090
:102C2000B38FA28F448F358F268F978F80A3E2E3D7
:102C3000F7E113821282C482D582E682F782718321
:102C400060836EEF77E1758764876AEB77E177875A
:102C5000668765E371E0718B608B64E371E0738B71
:102C6000628B60E371E0758B648B61E371E0778B5D
:102C7000668B62E371E0718F608F66E371E0738F42
:102C8000628F448F358F268F978F80A3FF90EF90B0
:102C9000DF90CF9008954F925F926F927F92AF92A4
:102CA000BF92CF92DF92EF92FF920F931F93CF9339
:102CB000DF93CDB7DEB729013A019B01AC0124199E
:102CC0003509460957098A899B89AC89BD89BC01A8
:102CD000CD016A197B098C099D090E94733AA801EC
:102CE000970124193509460957090E94B93ACA01C2
:102CF000B9016A0D7B1D8C1D9D1DDF91CF911F9128
:102D00000F91FF90EF90DF90CF90BF90AF907F90AA
:102D10006F905F904F9008950F931F93CF93DF9321
:102D2000EC01462F61E00E948421882391F08E01FE
:102D3000045F1F4F41E0BE01C8010E943A2788236B
:102D400051F0B801CE018A960E94601A91E081117B
:102D50000AC090E008C040E0BE01C8010E943A27C6
:102D60008823B9F3EECF892FDF91CF911F910F9177
:102D70000895FC01DB0112968D919C91139793832A
:102D8000828380E993E09183808314968C911497D9
:102D9000848315968C911597858316964D915D9138
:102DA0006D917C91199746835783608771871A9636
:102DB0004D915D916D917C911D97428753876487FA
:102DC00075871E964D915D916D917C9151974687C7
:102DD0005787608B718B52968C915297828B53964A
:102DE0004D915D916D917C915697438B548B658B82
:102DF000768B57964D915D916D917C915A97478B4B
:102E0000508F618F728F5B968D919C915C97948FA0
:102E1000838F08954F925F926F927F928F929F92CD
:102E2000AF92BF92CF92DF92EF92FF920F931F93D8
:102E3000CF93DF93CDB7DEB7C754D1090FB6F8945F
:102E4000DEBF0FBECDBF6C015A014901665D7F4FE9
:102E50007E018EE1E80EF11CC7010E94B9161C82AA
:102E60001B8280E993E09A8389831E828501FE019B
:102E700031963F0127016FE270E0C8010E94C83718
:102E80000097D9F1F80120812F3219F40F5F1F4FFD
:102E9000F2CF801B8D3008F08CE0E82EF12CA701DA
:102EA000B801CE01CB960E94D337EBE3F0E0EC0FF4
:102EB000FD1FEE0DFF1D1082C3010E94DC1C21E0EE
:102EC000AE01455C5F4FB201C3010E94101E81112B
:102ED00009C0F6011382128280E993E09183808316
:102EE000158214C00E0D1F1DC2010E94DC1C942D02
:102EF000852D2301692E782EBECF0A191B09F401F6
:102F000011830083B201C6010E94B916C601C95BD4
:102F1000DF4F0FB6F894DEBF0FBECDBFDF91CF916C
:102F20001F910F91FF90EF90DF90CF90BF90AF90E7
:102F30009F908F907F906F905F904F900895CF9269
:102F4000DF92FF920F931F93CF93DF93CDB7DEB73E
:102F5000C955D1090FB6F894DEBF0FBECDBF6C01C5
:102F60008A01F22E9E01285A3F4FCE01CB960E9435
:102F70000A176A968EAD9FAD6A97080F191FF80160
:102F8000808181110AC0BE01655C7F4FCE01019630
:102F90000E94B9164AE753E03EC019A218A280E980
:102FA00093E09F8F8E8F1BA221968FAD2197811169
:102FB00004C0C6010E94F21834C082502F2DA8010F
:102FC000823048F464E07AE1CE014E960E94101EF1
:102FD00081110EC0EECFBE01655C7F4FCE014E96D3
:102FE0000E94101E882329F3CE01CB960E94DC1C80
:102FF0009F2D967041F049A95AA96BA97CA9CE01D1
:103000004E960E94FF1BBE01625E7F4FCE0101966D
:103010000E94B916A801BE016F5F7F4FC6010E94D2
:10302000BD18C601C75ADF4F0FB6F894DEBF0FBEFA
:10303000CDBFDF91CF911F910F91FF90DF90CF9087
:103040000895EAEDF9E1158216821186138682E071
:1030500090E0A0E0B0E084879587A687B78713A2A9
:1030600015A614A680E993E093A782A717A6089552
:10307000CF93DF931F92CDB7DEB76983DC01ED916B
:10308000FC910280F381E02D41E050E0BE016F5FD2
:103090007F4F19950F90DF91CF910895CF93DF93D4
:1030A000EC01898D9A8D009739F481E090E09B8343
:1030B0008A8380E090E00BC0FC01138212820E94A0
:1030C000FE1EE98DFA8D22813381232B71F7DF916A
:1030D000CF910895FC01818D928D009711F00C9491
:1030E000951C0895CF93DF931F92CDB7DEB741E0D3
:1030F00050E0BE016F5F7F4F0E94B11A019719F433
:10310000898190E002C08FEF9FEF0F90DF91CF9108
:103110000895FC01818D928D009711F00C94721826
:103120008FEF9FEF08950F931F93CF93DF93FC01D1
:10313000818D928D0097B9F0EF010E9472188C0179
:103140000F3F8FEF180791F0898D9A8DFC01428512
:1031500053856485758541505109610971090E9443
:10316000FF1BC80105C080E090E002C08FEF9FEF19
:10317000DF91CF911F910F910895EF92FF920F93DE
:103180001F93CF93DF93EC017B018A011B821A828C
:1031900088EE93E0A0E0B0E08C839D83AE83BF8394
:1031A00080E893E0998388838DE190E00E9458360F
:1031B0009A8F898F009779F02DE1F701DC0101905A
:1031C0000D922A95E1F74CE050E0B801CE010C9643
:1031D0000E94D337188EDF91CF911F910F91FF90EE
:1031E000EF900895FC011382128288EE93E0A0E034
:1031F000B0E084839583A683B78380E893E09183CE
:103200008083128E118E148608950895FC01818D9D
:10321000928D009711F00C94B11A80E090E008951F
:10322000FC01818D928D009711F00C94FF1B80E0C2
:103230000895DC015996ED91FC915A97309729F049
:10324000628573858485958508956FEF7FEFCB0147
:103250000895DC015996ED91FC915A97309729F029
:103260006389748985899689089560E070E0CB014F
:103270000895CF92DF92EF92FF92CF93DF93FC01FC
:10328000218D328D232BD9F0EC010E9429196B017D
:103290007C01CE010E941919A7019601261B370B4C
:1032A000480B590BDA01C901811530E89307A105D4
:1032B000B10538F08FEF9FE7A0E0B0E002C080E0FA
:1032C00090E0DF91CF91FF90EF90DF90CF90089545
:1032D000CF93DF93EC01898D9A8D009741F00E9486
:1032E000DC1C898D9A8D0E94ED361A8E198EDF9125
:1032F000CF910895DC015996ED91FC915A97309742
:1033000021F081E09581911101C080E00895CF9373
:10331000DF93EC019C012A5F3F4F41E050E060E009
:1033200070E08B8D9C8D0E94CF258823A1F08F8922
:10333000988DA98DBA8D892B8A2B8B2B59F48E8170
:103340009F81A885B9858F8B988FA98FBA8F8C8123
:1033500080688C8381E0DF91CF910895CF92DF92D6
:10336000EF92FF921F93CF93DF93EC010E94871996
:10337000811102C080E04AC0EB8DFC8DCE80DF80E1
:10338000E884F98482E0C81AD108E108F1080584CC
:1033900004C0CC0CDD1CEE1CFF1C0A94D2F7868501
:1033A0009785A089B189C80ED91EEA1EFB1E14811B
:1033B00081E0C81AD108E108F108112361F0C701C2
:1033C000B601610F711D811D911D0E941E2488236D
:1033D00089F21150F2CFEB8DFC8D80E092E0A0E0FD
:1033E000B0E0058404C0880F991FAA1FBB1F0A9470
:1033F000D2F74B895C896D897E89840F951FA61F42
:10340000B71F8B8B9C8BAD8BBE8B81E0DF91CF91F7
:103410001F91FF90EF90DF90CF900895CF93DF93AF
:10342000EC01462F6E857F85888999890E94E32368
:10343000882341F08A8920E2829FC0011124845DA3
:10344000954E02C080E090E0DF91CF910895FB019E
:103450009B01255F3F4F40E24193E217F307E1F7FD
:10346000DC0190E027E08D91882319F18E3219F06C
:10347000EAE1F3E008C02A3009F198E02AE0F3CF4E
:1034800031963817D9F034913111FACF2917B0F0AD
:103490003FED380F3E3590F431E0390FFB01E90F75
:1034A000F11D9FE9980F9A3108F480528083932F81
:1034B000DACF81E0FB019081903209F480E0089539
:1034C0000F931F93CF93DF93FC012581222311F0EB
:1034D00080E042C08B01EC01FB0187898031B1F4AF
:1034E00082E08D831F8A188E198E1A8E808D918DA1
:1034F000A0E0B0E025E0880F991FAA1FBB1F2A9506
:10350000D1F78B8B9C8BAD8BBE8B15C0803201F7B6
:1035100083E08D83FB01428D538D648D758D4F8BC0
:10352000588F698F7A8F9E012D5E3F4FC8010E9490
:10353000C624882369F21C8F0B8F81E08C831E8246
:103540001F82188619861A861B861C861D861E8673
:103550001F86188A198A1A8ADF91CF911F910F91BD
:1035600008952F923F924F925F926F927F928F9227
:103570009F92AF92BF92CF92DF92EF92FF920F9302
:103580001F93CF93DF93EC015B014A018D81811181
:1035900003C08FEF9FEFD7C08C8180FFFACF4B889D
:1035A0005C886D887E884A855B856C857D85C401D5
:1035B000A0E0B0E093018201041B150B260B370B32
:1035C000081719072A073B0718F44201841A950ABD
:1035D00024011E0126E0220E311C4114510409F47D
:1035E0007EC04A855B856C857D856A0181E0D82235
:1035F000ED818A019B0189E03695279517950795FE
:103600008A95D1F78B8D9C8DE23061F4FC01828D1F
:10361000938DA48DB58DBC01CD01600F711F821FEC
:10362000931F3FC0FC0174807A947022C114D104AE
:10363000C9F4711017C0452B462B472B49F48F89CD
:10364000988DA98DBA8D8E839F83A887B9870AC06C
:103650004E815F816885798591010E94422488238B
:1036600009F497CFEB8DFC8D8E819F81A885B9855C
:103670000297A109B109058404C0880F991FAA1FE8
:10368000BB1F0A94D2F74685578560897189840FDC
:10369000951FA61FB71FBC01CD01670D711D811DB0
:1036A000911D20E032E02C193D0932012415350529
:1036B00008F439012C8126FD04C06114F2E07F0674
:1036C00079F50091130210911402209115023091A6
:1036D0001602601771078207930719F421C0C4010D
:1036E00032C0750183019601AB01BC0180912A1A99
:1036F00090912B1A0E940623882309F44ACFA60C26
:10370000B71C8A859B85AC85BD85860D971DA11D3F
:10371000B11D8A879B87AC87BD87461857085DCF48
:1037200040E00E94E323882309F433CFF601E45DEF
:10373000F54ED501CF01860D971DE817F907F9F26F
:1037400021912D93FACFDF91CF911F910F91FF908F
:10375000EF90DF90CF90BF90AF909F908F907F9031
:103760006F905F904F903F902F900895FF920F932E
:103770001F93CF93DF931F92CDB7DEB7FC01258156
:10378000223018F480E090E033C08C01FC014285C7
:1037900053856485758585E076956795579547953A
:1037A0008A95D1F7F42FFF70FF2E41E050E0BE0163
:1037B0006F5F7F4FC8010E94B11A019719F4898188
:1037C00090E002C08FEF9FEF0196E1F2F801828551
:1037D0009385A485B5854F96A11DB11D82879387DA
:1037E000A487B587F0E2FF9EC0011124845D954E49
:1037F0000F90DF91CF911F910F91FF9008958F92BD
:103800009F92AF92BF92CF92DF92EF92FF920F936F
:103810001F93CF93DF93EC018D81811102C080E073
:1038200077C00B891C892D893E8904171507260747
:103830003707A8F36A017B01823029F4CA86DB8648
:10384000EC86FD860DC0C114D104E104F10451F4ED
:103850001E821F82188619861A861B861C861D8664
:1038600081E056C08A849B84AC84BD84EB8DFC8D42
:10387000258530E0275F3F4FB501A4014150510934
:1038800061097109022E04C0769567955795479591
:103890000A94D2F7D701C6010197A109B10904C062
:1038A000B695A795979587952A95D2F7841795078A
:1038B000A607B70720F089288A288B2849F44F8962
:1038C000588D698D7A8D4E835F836887798704C0B0
:1038D000841B950BA60BB70B4C015D018E010A5F93
:1038E0001F4F81149104A104B10409F4A7CF4E81A4
:1038F0005F816885798598018B8D9C8D0E9442241B
:1039000091E0891A9108A108B1088111EACF87CF07
:10391000DF91CF911F910F91FF90EF90DF90CF90AB
:10392000BF90AF909F908F9008950F931F93CF9368
:10393000DF93EC018D818823C9F18C8187FF30C032
:1039400061E0CE010E940E1A8C01892B79F18D81E4
:10395000823048F48B899C89AD89BE89F801848FB7
:10396000958FA68FB78F8F89988DA98DBA8DF80105
:10397000938F828FB58BA48BE091231AF091241A38
:10398000309759F0B8016A5E7F4FC8014896199583
:10399000F801808D918D938B828B8C818F778C83B6
:1039A000DF91CF911F910F910C94A82380E0DF91BC
:1039B000CF911F910F910895CF93DF93EC010E9457
:1039C000951C882311F01D8281E0DF91CF9108952D
:1039D0004F925F926F927F928F929F92AF92BF921F
:1039E000EF92FF920F931F93CF93DF9300D01F921C
:1039F000CDB7DEB7FC0185818130E9F4848181FF98
:103A00001AC083899489A589B68984179507A60762
:103A1000B70788F0892B8A2B8B2B09F479C04A01D0
:103A20005B017F014284538464847584CF010E94CA
:103A3000FF1B811102C080E06CC0F701838D948D63
:103A400081149104A104B10471F44789508D618DF2
:103A5000728D0E94E426882371F3F701178A108E75
:103A6000118E128E3AC0F7014681578160857185AB
:103A70009E012F5F3F4F0E9442248823E1F249813B
:103A80005A816B817C81F701838D948DFC0127899C
:103A9000203129F008EF1FEF2FEF3FE004C008EFBF
:103AA0001FEF20E030E04017510762077307A8F4CA
:103AB0000E94E426882309F4BECFF701468157818E
:103AC000608571850FEF1FEF2FEF3FE0838D948DA1
:103AD0000E942F25882309F4AECFF701838A948AA8
:103AE000A58AB68A848180688483C7010E94951C58
:103AF000882309F4A0CFB501A401481459046A042D
:103B00007B0410F4B301A201C7010E94FF1B01C096
:103B100081E00F900F900F900F90DF91CF911F9148
:103B20000F91FF90EF90BF90AF909F908F907F90FC
:103B30006F905F904F9008951F93CF93DF93EC01A8
:103B400080E2689FF00111249F01245D354ED90168
:103B50001B969C91917129F0842F827411F080E062
:103B60005BC0142F6A8B8091130290911402A09174
:103B70001502B09116028E879F87A88BB98BE45DE2
:103B8000F54E4489558960E070E0BA015527442715
:103B90004F8B588F698F7A8F828D938DA0E0B0E024
:103BA000482B592B6A2B7B2B4F8B588F698F7A8F21
:103BB000D9011B968C91887151F4848D958DA68DB9
:103BC000B78D8B8B9C8BAD8BBE8B81E00DC0803114
:103BD00031F69E012D5E3F4F8B8D9C8D0E94C62439
:103BE000882309F4BCCF84E08D83812F8F708C8370
:103BF0001E821F82188619861A861B861C861D86C1
:103C000016FF09C040E050E0BA01CE01DF91CF912C
:103C10001F910C94E81C81E0DF91CF911F910895D2
:103C2000CF92DF92EF92FF920F931F93CF93DF9388
:103C3000CDB7DEB72C970FB6F894DEBF0FBECDBF61
:103C4000FC0135813111C2C0D22E8B017C01BE0135
:103C50006F5F7F4FCA010E94271A882309F4B6C0FC
:103C6000F801838D948DF701948F838FF80116826C
:103C7000178210861186128613861486158630E008
:103C8000F80182859385A485B58543895489658922
:103C9000768984179507A607B70708F041C025E085
:103CA000B695A795979587952A95D1F7F82FFF7028
:103CB000CF2EC8013C870E94B61B3C85009709F4B3
:103CC00085C0FC012081222309F484C0253E99F09F
:103CD0004BE050E0BC01CE0101963C870E94BB370F
:103CE0003C85892B69F68D2D8073803309F46EC075
:103CF0004D2D6C2D67C031116BC0F701C28A409108
:103D000013025091140260911502709116024687B9
:103D10005787608B718BFC01808131E08111B0CFBE
:103D20008D2D8271823109F051C0332341F061E061
:103D3000C7010E940E1A8C01892B79F447C0F80143
:103D40008581823009F442C0C8010E94AE198823DF
:103D5000E9F1F701128A0CE21AE180E2F80111920E
:103D60008A95E9F78BE0FE013196D80101900D921A
:103D70008A95E1F7E091231AF091241A309739F0EF
:103D8000B801625F7F4FC8014096199509C081E272
:103D900098E2F801918B808B80E098E09787868786
:103DA000F80180899189938B828B918F808F868592
:103DB0009785978B868B0E94A823882339F04D2DF9
:103DC000F7016289C7010E949C1D09C080E007C0FD
:103DD00031E056CF332309F490CF31E0A1CF2C96B8
:103DE0000FB6F894DEBF0FBECDBFDF91CF911F910C
:103DF0000F91FF90EF90DF90CF9008952F923F9218
:103E00004F925F926F927F928F929F92AF92BF92EA
:103E1000CF92DF92EF92FF920F931F93CF93DF9396
:103E200000D01F92CDB7DEB78C016B013A01DC01E7
:103E300015968C9115978130C9F414968C9181FF59
:103E400015C082FF1DC0F8014389548965897689B0
:103E500082859385A485B58584179507A607B7073E
:103E600079F0C8010E94FF1B81110AC081E090E037
:103E7000D80113969C938E93129780E090E048C1EE
:103E8000430184C0D8015B968D919C915C97FC01A5
:103E900054802FEF250D1A012B0139E056944794D9
:103EA000379427943A95D1F7522E52207A01F1E0B7
:103EB000FF22552009F476C080E092E08E199F0918
:103EC00054018815990508F45C01D8015B962D9181
:103ED0003C915C9716968D919D910D90BC91A02D73
:103EE0000297A109B109F901058404C0880F991F3F
:103EF000AA1FBB1F0A94D2F746855785608971892E
:103F0000840F951FA61FB71F9C01AD01250D311D04
:103F1000411D511D19012A01A11432E0B30609F017
:103F200088C08091130290911402A0911502B09163
:103F3000160282159305A405B50559F48FEF9FEF7E
:103F4000DC018093130290931402A0931502B093A6
:103F500016029601B201A10180912A1A90912B1AA2
:103F60000E945A23882309F481CF9EEFD91A8A1818
:103F70009B08F80182859385A485B5858A0D9B1DD4
:103F8000A11DB11D82879387A487B587D8011A9692
:103F90004D915D916D917C911D978114910409F073
:103FA00071CF87C0E114F10409F086CF16964D91C8
:103FB0005D916D917C9119974115510561057105D0
:103FC00059F457968D919D910D90BC91A02D00971D
:103FD000A105B10541F521C09E012F5F3F4F0E9411
:103FE0004224882309F44ACF89819A81AB81BC811C
:103FF000F801238D348DF9012789203129F048EF0C
:104000005FEF6FEF7FE004C048EF5FEF60E070E0CC
:1040100084179507A607B70730F0C8010E948719D3
:1040200081114ACF23CFF80186839783A087B18778
:1040300043CFE114F10429F5D8011A964D915D9111
:104040006D917C911D9753968D919D910D90BC9192
:10405000A02D481759076A077B0798F00E94A823EC
:10406000882309F403CF2092130230921402409265
:104070001502509216028091291A81608093291AA4
:1040800008C041E0C201B1010E94E323882309F482
:10409000EDCED601F701E45DF54ECF018A0D9B1DF3
:1040A000E817F90719F02D912193FACFCA0CDB1C00
:1040B0005ECF5396CD90DD90ED90FC905697149680
:1040C0008C91C416D506E606F70640F4F801438B3A
:1040D000548B658B768B806884830DC02091231A66
:1040E0003091241A232B39F06114710421F0806877
:1040F000D80114968C93F801848183FD02C0C3011A
:1041000007C0C8010E94951C882309F4AFCEF7CFE1
:104110000F900F900F900F90DF91CF911F910F9103
:10412000FF90EF90DF90CF90BF90AF909F908F90D7
:104130007F906F905F904F903F902F900895CF9316
:10414000DF931F92CDB7DEB7698341E050E0BE0137
:104150006F5F7F4F0E94FE1E0F90DF91CF910895F9
:104160008EBD0DB407FEFDCF08958FEF0E94B020E5
:104170008EB5089561E0FC0184810C94F71060E035
:10418000FC0184810C94F710CF93DF93FC018681AE
:104190008823D1F08FEF8EBD4FEF878190859C01F2
:1041A0002F5F3F4F308727838130924028F40DB432
:1041B00007FEFDCF4EBDF1CF0DB407FEFDCFEF01E1
:1041C000CF010E94BA201E82DF91CF9108956730FF
:1041D00028F026E1FC01258380E008958DB560FD7F
:1041E00002C0663011F48E7F01C081608DBD8CB538
:1041F0008C7F8CBD9CB562FD02C080E001C082E076
:1042000066956170692B862B8CBD81E008950F93B4
:104210001F93CF93DF93EB010E948B0F8B010E94C2
:10422000B5208F3F49F00E948B0F601B710B6C17FC
:104230007D07A8F380E001C081E0DF91CF911F915D
:104240000F910895CF92DF92FF920F931F93CF9318
:10425000DF9300D01F92CDB7DEB76C01F62E298315
:104260003A834B835C830E94C420C6010E94BF2016
:104270006CE271E0C6010E9407218F2D80640E94CC
:10428000B02008E110E05C814B813A812981DA019C
:10429000C901002E04C0B695A795979587950A94F5
:1042A000D2F729833A834B835C830E94B020085065
:1042B000110929813A814B815C81083F8FEF1807F2
:1042C00031F7FF2029F0E8E0FE1204C087E803C0C0
:1042D00085E901C08FEF0E94B02010E00E94B52058
:1042E000F601828787FF04C01F3F11F01F5FF6CFE2
:1042F0000F900F900F900F90DF91CF911F910F9122
:10430000FF90DF90CF9008958F929F92AF92BF92CF
:10431000EF92FF920F931F93CF93DF93EC01E62E62
:104320001B8619861E821D824C830E948B0F8B0177
:1043300061E08C810E94BB10CE010E94BA2060E037
:1043400082E30E94BB1061E083E30E94BB1061E046
:1043500084E30E94BB1061E085E30E94BB1061E032
:1043600085E30E94F71083E58CBD8DB58E7F8DBDF2
:104370002AE0F22E8FEF0E94B020FA94F110FACFCB
:10438000CE010E94BF2020E030E0A90160E0CE0114
:104390000E942221F82E8A8781E0F81649F00E94B7
:1043A0008B0F601B710B613D774068F381E04CC05F
:1043B0002AEA31E040E050E068E0CE010E9422218C
:1043C00082FF02C0FB860EC094E0F92E0E94B52049
:1043D0008A87FA94F110FACF8A3A11F082E034C059
:1043E00082E08B878B85823021F0812C912C5401C7
:1043F00005C0812C912CA12C80E4B82E20E030E067
:10440000A90167E3CE010E942221A501940169E27E
:10441000CE010E9422218A87882349F00E948B0FB7
:10442000601B710B613D774048F388E00DC08B85C0
:10443000823039F520E030E0A9016AE3CE010E9424
:104440002221882389F086E08D83CE010E94BA2044
:1044500080E0DF91CF911F910F91FF90EF90BF907F
:10446000AF909F908F9008950E94B520807C803CF3
:1044700011F483E08B870E94B5200E94B5200E9432
:10448000B520CE010E94BA206E2DCE01DF91CF91D2
:104490001F910F91FF90EF90BF90AF909F908F90E2
:1044A0000C94E7200F931F93CF93DF93EC010E94AE
:1044B0008B0F8B010E94B5208A878F3F49F40E94A1
:1044C0008B0F601B710B6D327140A0F38FE003C046
:1044D0008E3F39F08DE08D83CE010E94BA2080E0BE
:1044E00001C081E0DF91CF911F910F910895CF928C
:1044F000DF92EF92FF920F931F93CF93DF93EC0124
:104500006901C801820F931F8130924008F06FC08B
:104510008E81882371F088819981AA81BB81481797
:1045200059076A077B0729F48F819885C816D90631
:1045300018F5488359836A837B838B85833039F0F0
:1045400089E0440F551F661F771F8A95D1F79A019E
:10455000AB0161E1CE010E942221882319F083E0A2
:104560008D8345C0CE010E945222882309F43FC0AA
:1045700018861F8281E08E838FEF8EBD2FEF8F8193
:1045800098858C159D0550F40DB407FEFDCF2EBD0A
:104590008F819885019698878F83F1CFC801019705
:1045A000F7014FEF9F012E193F092817390738F4FB
:1045B0000DB407FEFDCF2EB521934EBDF3CF0DB444
:1045C00007FEFDCF2EB5F701E80FF91F20838F817D
:1045D0009885080F191F18870F838985882319F07C
:1045E0000115124048F0CE010E94C42005C0CE0142
:1045F0000E94BA2080E001C081E0DF91CF911F913D
:104600000F91FF90EF90DF90CF900895EF92FF927F
:104610000F931F930115110519F00E94772201C015
:1046200081E01F910F91FF90EF900895EF92FF921C
:104630000F931F93790100E012E020E030E00E9428
:1046400077221F910F91FF90EF900895CF93DF9302
:10465000EC016EBD20E030E00DB407FEFDCFFA01A5
:10466000E20FF31F80818EBD0DB407FEFDCF818167
:104670008EBD2E5F3F4F211582E0380769F70DB4DC
:1046800007FEFDCF8FEF0E94B0208FEF0E94B02079
:104690000E94B5208A87982F9F71953039F081E16B
:1046A0008D83CE010E94BA2080E001C081E0DF91BD
:1046B000CF9108950F931F93CF93DF93EC0189015E
:1046C000411551056105710511F482E132C08B85F8
:1046D000833039F089E0440F551F661F771F8A9594
:1046E000D1F79A01AB0168E1CE010E942221882313
:1046F00011F084E01EC0A8016EEFCE010E942623B7
:104700008823C1F068E572E0CE010E940721811183
:1047100002C085E10EC020E030E0A9016DE0CE01CD
:104720000E942221811104C00E94B520882339F003
:1047300084E18D83CE010E94BA2080E004C0CE01C6
:104740000E94BA2081E0DF91CF911F910F910895CF
:104750008091291A8823A9F14091130250911402E3
:1047600060911502709116022CE23AE180912A1AAA
:1047700090912B1A0E945A23811102C080E0089563
:104780004091251A5091261A6091271A7091281A83
:10479000411551056105710591F02CE23AE18091D6
:1047A0002A1A90912B1A0E945A23882339F31092C7
:1047B000251A1092261A1092271A1092281A10926F
:1047C000291A81E00895CF92DF92EF92FF92CF9362
:1047D0006B017C01C42F8091130290911402A0916F
:1047E0001502B09116028C159D05AE05BF05D1F0DE
:1047F0000E94A823811102C080E01AC02CE23AE195
:10480000B701A60180912A1A90912B1A0E941623B3
:10481000882391F3C0921302D0921402E092150201
:10482000F09216028091291AC82BC093291A81E0B0
:10483000CF91FF90EF90DF90CF900895CF92DF92CD
:10484000EF92FF926B017C010E94A8238823A9F0BC
:10485000ECE2FAE111928CE1EC32F807D9F7C09260
:104860001302D0921402E0921502F0921602809187
:10487000291A81608093291A81E0FF90EF90DF90E0
:10488000CF9008958F929F92AF92BF92CF92DF9276
:10489000EF92FF920F931F93CF93DF93FC018185DB
:1048A0009285A385B4850196A11DB11D8417950736
:1048B000A607B70710F480E05CC083899489A589B6
:1048C000B689C789C03129F4852E962EA72EBB2420
:1048D00009C04A015B01C7E0B694A79497948794F6
:1048E000CA95D1F7E9016A017B018F01BC01CD01B5
:1048F000680D791D8A1D9B1D8090130290901402F3
:10490000A0901502B0901602681579058A059B05DE
:1049100099F4F80187898031A9F4B701A6015527D8
:1049200066277727440F551FFA01E45DF54E808115
:104930009181A0E0B0E018C040E00E94E323811123
:10494000E8CFB9CFB701A6014F775527662777275C
:10495000440F551F440F551FFA01E45DF54E808149
:104960009181A281B381BF7088839983AA83BB831D
:1049700081E0DF91CF911F910F91FF90EF90DF9039
:10498000CF90BF90AF909F908F9008954F925F927D
:104990006F927F92AF92BF92CF92DF92EF92FF928F
:1049A0000F931F93CF93DF9300D01F92CDB7DEB745
:1049B0008C0149835A836B837C835901C12CD12C90
:1049C0007601412C82E0582E612C712C49815A814C
:1049D0006B817C819E012F5F3F4FC8010E94422462
:1049E000882351F1D301C201F801058404C0880F66
:1049F000991FAA1FBB1F0A94D2F7C80ED91EEA1E20
:104A0000FB1E49815A816B817C818789803129F025
:104A100088EF9FEFAFEFBFE004C088EF9FEFA0E00B
:104A2000B0E0481759076A077B0780F2F501C0829A
:104A3000D182E282F38281E00F900F900F900F906D
:104A4000DF91CF911F910F91FF90EF90DF90CF906A
:104A5000BF90AF907F906F905F904F9008954F926E
:104A60005F926F927F928F929F92AF92BF92CF92FE
:104A7000DF92EF92FF920F931F93CF93DF93EC019E
:104A80006A017B0128013901423051056105710538
:104A900010F480E073C089859A85AB85BC8501964A
:104AA000A11DB11D84179507A607B70790F38B8842
:104AB0009C88AD88BE888F89803129F4BB27AF2DB3
:104AC0009E2D8D2D09C0DB01CA0147E0B695A79543
:104AD000979587954A95D1F7880E991EAA1EBB1EF9
:104AE0008091130290911402A0911502B0911602C8
:104AF00088169906AA06BB0679F48F898031A1F43D
:104B0000DD24EE24FF24C601880F991FFC01E45D1B
:104B1000F54E5182408219C040E0C501B4010E94A7
:104B2000E3238111EACFB5CFE894C7F8DD24EE2462
:104B3000FF24C601880F991F880F991FFC01E45DAF
:104B4000F54E40825182628273828091291A81607F
:104B50008093291A8A89823080F08D819E81AF816D
:104B6000B885880E991EAA1EBB1E8092251A9092A7
:104B7000261AA092271AB092281A81E0DF91CF91CD
:104B80001F910F91FF90EF90DF90CF90BF90AF906B
:104B90009F908F907F906F905F904F9008952F928D
:104BA0003F924F925F926F927F929F92AF92BF928D
:104BB000CF92DF92EF92FF920F931F93CF93DF93E9
:104BC000CDB7DEB760970FB6F894DEBF0FBECDBF8E
:104BD0005C0149875A876B877C871901D901CD9081
:104BE000DD90ED90FC90C114D104E104F10431F0AA
:104BF000BFEFCB1ADB0AEB0AFB0A10C0FC01C08036
:104C0000D180E280F3809924939409851A852B85BD
:104C10003C85013011052105310509F0912CF50184
:104C200081859285A385B4858C019D010F5F1F4FFF
:104C30002F4F3F4F0D871E872F87388B2601370157
:104C40001D821E821F821886F50181859285A385AB
:104C5000B4850D811E812F813885081719072A0711
:104C60003B0708F056C02D853E854F855889241591
:104C700035054605570550F482E0482E512C612C2D
:104C8000712C92E0C92ED12CE12CF12C9E012F5FCA
:104C90003F4FB301A201C5010E9442248823C9F1FC
:104CA00049815A816B817C81D301C2010196A11D8A
:104CB000B11D452B462B472B19F06C017D010FC010
:104CC000AC01BD014C195D096E097F0909851A8582
:104CD0002B853C85401751076207730779F02D81BA
:104CE0003E814F8158852F5F3F4F4F4F5F4F2D8340
:104CF0003E834F8358872C013D01A6CF0FEF1FEF56
:104D00002FEF3FE0B301A201C5010E942F258111C1
:104D100018C080E041C0D301C2010197A109B109C7
:104D20008D839E83AF83B88793018201AC01BD015F
:104D3000C5010E942F25882361F34D805E806F801E
:104D40007884C414D504E604F70428F3D1014D9106
:104D50005D916D917C91411551056105710599F445
:104D6000F101C082D182E282F3829920A1F0FFEFAB
:104D7000CF1ADF0AEF0AFF0AD501CD92DD92ED923C
:104D8000FC92139708C097018601C5010E942F2548
:104D90008111E6CFBECF81E060960FB6F894DEBFFA
:104DA0000FBECDBFDF91CF911F910F91FF90EF907C
:104DB000DF90CF90BF90AF909F907F906F905F906B
:104DC0004F903F902F900895AF92BF92CF92DF9275
:104DD000EF92FF920F931F93CF93DF9300D01F9218
:104DE000CDB7DEB75C016A017B0182E090E0A0E014
:104DF000B0E0F50180839183A283B3839E012F5F8E
:104E00003F4FB701A601C5010E944224882311F13A
:104E100000E010E09801B701A601C5010E942F250E
:104E20008823C1F0C980DA80EB80FC80F501878996
:104E3000803129F088EF9FEFAFEFBFE004C088EF2B
:104E40009FEFA0E0B0E0C816D906EA06FB06B0F274
:104E500081E001C080E00F900F900F900F90DF91E4
:104E6000CF911F910F91FF90EF90DF90CF90BF9067
:104E7000AF9008958F929F92AF92BF92CF92DF92A0
:104E8000EF92FF920F931F93CF93DF93EC01142FB8
:104E900070932B1A60932A1A442369F1453010F05D
:104EA00080E0F2C040E060E070E0CB010E94E323CC
:104EB0008823B1F320E1129FA0011124445E554ED6
:104EC000FA01E254FE4F80818F7751F73C96808142
:104ED0009181A281B38184369105A105B10500F3CA
:104EE0003497C080D180E280F380C114D104E10402
:104EF000F10421F4D5CFC12CD12C760140E0C701BB
:104F0000B6010E94E323882359F28091371A9091C9
:104F1000381A8115924021F690913C1A992309F490
:104F2000BFCF20913A1A30913B1A232B09F4B8CF06
:104F30008091391A882309F4B3CF9A8B8C831D860C
:104F400090E061E070E02D85E22FAB01022E02C0FF
:104F5000440F551F0A94E2F78417950731F031E0AA
:104F6000320F3D87283078F39BCF2091421A309141
:104F7000431A2115310519F040E050E008C0209196
:104F8000501A3091511A4091521A5091531A2D8350
:104F90003E834F83588780913A1A90913B1A46017D
:104FA0005701880E991EA11CB11C8B8A9C8AAD8A60
:104FB000BE8A00913D1A10913E1A198F088FA09158
:104FC0003C1AB0E00E94FE3A860E971EA81EB91E3B
:104FD0008A8E9B8EAC8EBD8E85E0000F111F8A9548
:104FE000E1F701501E4F012F11270695800E911EEB
:104FF000A11CB11C8E869F86A88AB98A20913F1A6F
:105000003091401A2115310521F0A90160E070E0CE
:1050100008C040914C1A50914D1A60914E1A7091EF
:105020004F1AD701C60188199909AA09BB09840F2B
:10503000951FA61FB71F04C0B695A795979587958E
:10504000EA95D2F789879A87AB87BC87853F2FE09F
:105050009207A105B10510F48CE014C0853F9F4F65
:10506000A105B10510F480E10DC08091581A90910E
:10507000591AA0915A1AB0915B1A8A8F9B8FAC8FE4
:10508000BD8F80E28F8B81E0DF91CF911F910F91D7
:10509000FF90EF90DF90CF90BF90AF909F908F9058
:1050A00008952F923F924F925F926F927F928F92CC
:1050B0009F92AF92BF92CF92DF92EF92FF920F93A7
:1050C0001F93CF93DF9300D0CDB7DEB74C017B8326
:1050D0006A836A01590117019801241B350B37FFB8
:1050E00003C0319521953109C5014A815B81841B3B
:1050F000950B97FF03C091958195910951E05983D4
:105100008217930714F019820BC09A2D8B2D58012A
:10511000092F182F9A818B81DB82CA82C92ED82E43
:105120008A819B81A816B9065CF49C2D8D2D68019F
:10513000092F182F9A818B81BB82AA82A92EB82EA3
:105140002501AA81BB814A1A5B0A38016C187D08C7
:1051500077FE03C0719461947108720157FE03C019
:10516000BFEFEB1AFB0AF594E794C016D1061CF0CA
:105170000FEF1FEF1FC001E010E01CC0D401ED9144
:10518000FC91B9810084F185E02D9101BB23C1F030
:105190004A815B81B601C4011995E618F708F7FE4C
:1051A00004C0C00ED11EE40CF51CEA81FB813196CF
:1051B000FB83EA834A815B81A416B506FCF604C032
:1051C000A6016A817B81E7CF0F900F900F90DF914E
:1051D000CF911F910F91FF90EF90DF90CF90BF90F4
:1051E000AF909F908F907F906F905F904F903F9087
:1051F0002F9008950895DC01ED91FC910480F581D4
:10520000E02D19940F931F93DC01ED91FC91008C1C
:10521000F18DE02D19951F910F9108950F931F9314
:10522000DC01ED91FC91028CF38DE02D19951F911D
:105230000F910895EF92FF920F931F93DC01ED9170
:10524000FC91048CF58DE02D19951F910F91FF9025
:10525000EF9008950895AF92BF92CF92DF92EF92B0
:10526000FF920F931F93CF93DF9300D01F92CDB780
:10527000DEB75C016901DC01ED91FC910680F781EC
:10528000E02D4B835C8369837A831995D501ED9179
:10529000FC914B815C81C40ED51EB1E0CB1AD108C4
:1052A0000088F189E02D7801860169817A819B016E
:1052B000C5011995D501ED91FC910288F389E02D86
:1052C000C5010F900F900F900F90DF91CF911F911C
:1052D0000F91FF90EF90DF90CF90BF90AF90199417
:1052E000AF92BF92CF92DF92EF92FF920F931F93F4
:1052F000CF93DF9300D01F92CDB7DEB75C01690179
:10530000DC01ED91FC910680F781E02D4B835C83FD
:1053100069837A831995D501ED91FC9169817A8130
:105320009B012C0D3D1D215031090088F189E02D94
:1053300078014B815C818A01C5011995D501ED91F8
:10534000FC910288F389E02DC5010F900F900F901A
:105350000F90DF91CF911F910F91FF90EF90DF9011
:10536000CF90BF90AF9019944F925F926F927F92BF
:105370008F929F92AF92BF92CF92DF92EF92FF9265
:105380000F931F93CF93DF931F921F92CDB7DEB77A
:105390006C015A0139014801DC01ED91FC91068054
:1053A000F781E02D69837A8319956981462E7A8188
:1053B000572E640C751CD601ED91FC9146145704D0
:1053C0006CF40484F585E02D87019401A501B201F8
:1053D000C6011995BFEF4B1A5B0AEDCF0288F3891E
:1053E000E02DC6010F900F90DF91CF911F910F918B
:1053F000FF90EF90DF90CF90BF90AF909F908F90F5
:105400007F906F905F904F901994EF92FF920F935F
:105410001F93DC01ED91FC9111971A960D911C914F
:105420001B9718962D913C911997048CF58DE02DC2
:105430007B0140E050E060E070E019951F910F9112
:10544000FF90EF900895CF92DF92EF92FF920F932B
:105450001F93CF93DF9300D000D0CDB7DEB76C01A0
:10546000DC01ED91FC916217730789F404171507AD
:105470002CF4942F852FA801092F182F041B150B2E
:1054800098012F5F3F4F008CF18DE02D12C0401727
:10549000510709F5261737072CF4962F872FB901E6
:1054A000292F382F261B370B2F5F3F4F028CF38D90
:1054B000E02D8701C601199526960FB6F894DEBF38
:1054C0000FBECDBFDF91CF911F910F91FF90EF9055
:1054D000DF90CF9008950680F781E02D2D833E83E5
:1054E0004B835C8369837A831995D601ED91FC9196
:1054F0000088F189E02D2D813E814B815C8169819D
:105500007A81C6011995D601ED91FC910288F38943
:10551000E02DC60126960FB6F894DEBF0FBECDBFB4
:10552000DF91CF911F910F91FF90EF90DF90CF907F
:1055300019946F927F928F929F92AF92BF92CF9267
:10554000DF92EF92FF920F931F93CF93DF93EC01C3
:105550004B015A0169013801E881F9810680F78120
:10556000E02D1995E881F9810684F785E02D870102
:105570009601A501B401CE011995E881F981A50133
:10558000460D571D415051090684F785E02D9601BF
:10559000B401CE011995E881F9810484F585E02DE7
:1055A0009301A501B401CE011995E881F981C80CD8
:1055B000D91CB601615071090484F585E02D930171
:1055C000A501CE011995E881F9810288F389E02DC2
:1055D000CE01DF91CF911F910F91FF90EF90DF905F
:1055E000CF90BF90AF909F908F907F906F901994C5
:1055F0000895FC016370658B8481958126813781D4
:10560000613039F0633029F09187808733872287B2
:10561000089531872087938782870895FC0113823C
:10562000128288E993E09183808375836483578332
:1056300046837187608753874287158A158614864B
:105640001786168681E0848B2FEF3FEF338B228BFA
:10565000318B208B868B178A118E108E08952F9296
:105660003F924F925F926F927F928F929F92AF92F2
:10567000BF92CF92DF92EF92FF920F931F93CF933F
:10568000DF93CDB7DEB76C970FB6F894DEBF0FBED1
:10569000CDBF9C8F8B8F5B011A011F830E83370157
:1056A000C982DC0158964D915C915997411551057D
:1056B00009F0E5C018968D919C91199768177907A4
:1056C0000CF0CAC11A968D919C911B972816390629
:1056D0000CF0C2C18C2C912CFB0136E0C39EE00D76
:1056E000F11D1124FB87EA871E161F060CF0B4C1BA
:1056F000C40133E0880F991F3A95E1F79D878C87A5
:10570000820D931D181619060CF0A6C157968C91A0
:10571000811103C0203B08F02F5FAB8DBC8DED9154
:10572000FC9111970680F781E02DCD012A8F199504
:105730002A8DB5E02B9F90011124F5013596FF8746
:10574000EE872501BB82AA82A9014A195B09598B00
:10575000488BC10108969B8B8A8BE889F989E40DF7
:10576000F51DE65DFC4F949198873D822C82610186
:10577000A885A0FF13C0AB8DBC8DED91FC91B981C4
:10578000B13031F40084F185E02D2E813F8116C0C7
:105790000284F385E02DEE80FF801AC0EE81FF8148
:1057A0006E167F06F1F0AB8DBC8DED91FC91B98149
:1057B000B13051F40084F185E02D9301A601B201CE
:1057C0008B8D9C8D19950DC00284F385E02D73019E
:1057D000840194014C815D816A817B818B8D9C8DDC
:1057E0001995E885E695E8872C813D81280D391DBE
:1057F0003D832C833FEFC31AD30A4A895B89C416C1
:10580000D50609F0B5CF8A819B81880D991D9B83B0
:105810008A839FEF491A590AAE85BF854A165B06EF
:1058200009F09BCFEE81FF816E167F0609F4F2C06E
:10583000EB8DFC8DA081B181F981F13079F4B50156
:105840006B5F7F4F1C96ED91FC911D97830128E0C3
:1058500030E0A1018B8D9C8D1995DCC06A857B851C
:10586000681979091A96ED91FC911B9773010C85C3
:105870001D859401A1018B8D9C8D1995CBC0FA01DA
:1058800034969491329765917491291BCB01B7E0BE
:105890002B9F800D911D1124FA01259134913B8B92
:1058A0002A8BFC01459154915B834A83FC0132961B
:1058B000C490319654915C87329614913196D4906D
:1058C0008981823058F0612E012E000C7708AD2DB1
:1058D0000D2C000CBB0BB987A88704C0198618864D
:1058E000612C712CAB8DBC8DED91FC9111970680D4
:1058F000F781E02DCD011995B9818B2E912C689CF3
:10590000C001699C900D789C900D1124FC01EA0D5A
:10591000FB1DF98BE88B1C82712C612CE12F110F80
:10592000FF0B95012E0F3F1F3B872A87AC0CB11C44
:10593000A5014E0F5F1F5F8B4E8BC1018D0D911D19
:10594000D7FC9A95998F888F4C85641608F062C0B1
:10595000862D90E048855985480F591F489D900134
:10596000499D300D589D300D1124D901A20DB31D54
:10597000BF87AE87AA84BB8448885988DC80BA85F3
:10598000DB1AE88DF98DE80FF91FFD8BEC8B8D2D5F
:105990008A0D2E893F89A216B306B9F1877061F48A
:1059A0008A819B810196EA89FB89AA81BB81EA0FE2
:1059B000FB1F74909B838A8377FE20C0AB8DBC8DC8
:1059C000ED91FC91B981B13061F40084F185E02D55
:1059D0002E813F814C895D89B5018B8D9C8D1995F8
:1059E0000DC00284F385E02DEE80FF8084019401D8
:1059F0004E855F85B2018B8D9C8D1995770C480C77
:105A0000591CEFEFAE1ABE0AC2CF3C813C0D3C835D
:105A100063949ACFAB8DBC8DED91FC911197028868
:105A2000F389E02DCD016C960FB6F894DEBF0FBE62
:105A3000CDBFDF91CF911F910F91FF90EF90DF903D
:105A4000CF90BF90AF909F908F907F906F905F901E
:105A50004F903F902F9019946C960FB6F894DEBF3C
:105A60000FBECDBFDF91CF911F910F91FF90EF90AF
:105A7000DF90CF90BF90AF909F908F907F906F906E
:105A80005F904F903F902F900895AF92BF92CF922A
:105A9000EF92FF920F931F93CF93DF93EC01262F8A
:105AA000888D998D009709F040C06A3059F41D86A1
:105AB0001C862C898E859F8538E0239F800D911D43
:105AC000112441C06D3009F4AAC08E898823C1F029
:105AD0003C898C859D8546E0349F800D911D112465
